:400000000080002011000000B1D20100B1D2010008B5044B1A6803F53F5302331A601DF04FF900BFFA46004010B5054C237833B9044B13B10448AFF300800123237010BD0A
:40004000D881FF1F00000000E4DC0100084B10B51BB108490848AFF300800848036803B910BD074B002BFBD0BDE81040184700BF00000000DC81FF1FE4DC0100C880FF1F60
:4000800000000000704700BF08B51DF093FCC0B2024B18705A785870801A08BDF481FF1F10B50C46FFF7F0FFA0811DF031FD10B90123A37301E00023A373002010BD00BF7D
:4000C0000539C9B201290ED808B5074B186817F071FB1DF001FC054B18681AF081FF80B21DF0FAFB08BD7047F8F6FF1FC8F6FF1FC1B908B501210C4B186803F057FC0121A1
:400100000A4B186803F052FC0121094B186803F04DFC084B5968986802F09EF806481DF0BDFB08BD704700BFC8F6FF1FF8F6FF1FECF6FF1FF481FF1FE8DC010081B908B556
:400140000121084B186803F031FC0121064B186803F02CFC054B5968986802F07DF808BD704700BFCCF6FF1FE4F6FF1FF481FF1FB9B910B501210B4B186803F017FC0121E7
:40018000094B186803F012FC084C6168A06802F063F8206900F09AFF0121206916F034F810BD7047DCF6FF1FD0F6FF1FF481FF1F38B505460C463D481DF070FB20461DF024
:4001C0007BFB1DF093FB102C6FD1394BDB68AB4223D1284615F01AFEF8B1354C0021206916F012F80021606916F00EF8A169A06802F032F82F4C0021206803F0D7FB00212D
:400200002D4B186803F0D2FB00212C4B186803F0CDFB206800F05AFF38BD254B5B699D4221D1284615F0F2FDE8B1214C0021E06815F0EAFF0021206915F0E6FF20481DF0A0
:400240002DFBE169A06802F007F81E4C0021206803F0ACFB00211C4B186803F0A7FB206800F034FF38BD124B1B699D421DD1284615F0CCFDC8B10E4C0021E06815F0C4FF3B
:400280000021606915F0C0FF216AA06801F0E4FF0E4C0021206803F089FB00210C4B186803F084FB206800F011FF38BDF8DC0100F481FF1FF8F6FF1FC8F6FF1FECF6FF1F78
:4002C00010DD0100CCF6FF1FE4F6FF1FD0F6FF1FDCF6FF1F70B582B00446002117F076F9194D28600021204615F0C2FC174C20601749286817F0BEF8164E2968F06900F026
:4003000023FE2168F06900F01FFE134B7F220021206804F06BFC0023009302221146206816F0F2FA0D49286802F094FC0C49206802F090FC0121286803F038FB01212068BA
:4003400003F034FB02B070BDCCF6FF1FE4F6FF1F20DD0100F481FF1F2CDD0100850000003D010000F0B583B00746002117F02EF9374E3060002138461AF080FD354C206096
:400380000021384615F074FC334D28603349306817F070F88022012120681AF03FFD0022032120681AF0CCFC012120681BF05AFD012120681BF072FD2021206805F002FD7F
:4003C000384602F019FE87B2791F09B2306804F099FAA7F1140109B2206804F093FA204B7F220021286804F001FC002700973B4602221146286816F087FA00973B4605229C
:400400003946286803F0AEF81649306802F022FC1549286802F01EFC144F3168B86900F093FD2168B86900F08FFD2968B86900F08BFD0121206803F0B9FA0121306803F029
:40044000B5FA0121286803F0B1FA03B0F0BD00BFF8F6FF1FC8F6FF1FECF6FF1F30DD01002CDD0100B9060000F1000000F481FF1FF0B583B0064600211AF000FD234C2060E0
:400480000021304615F0F4FB214D2860214F2168386A00F059FD2968386A00F055FD002120681BF0DFFC012120681BF0F7FC304602F0A2FDA0F1140109B2206804F022FA2E
:4004C000154B7F220021286804F090FB00260096334602221146286816F016FA0F49286802F0B8FB8022012120681AF097FC3246032120681AF024FC0121206803F056FAC4
:400500000121286803F052FA03B0F0BDD0F6FF1FDCF6FF1FF481FF1F2CDD0100710100002DE9F04383B00746002010F07DFB32380FFA80F8002010F063FB00EBD070C0F3DF
:400540004F060021384616F03DF9514C6062711F424609B203F034FD002500950F2307222946606A02F0FEFF0221606A16F0ACF92946384618F00EFD8146464918F00AFCBC
:4005800000952B460922616A484602F0EBFF2946384616F017F9A062A6F12301424609B203F00EFD00956FF00E0308222946A06A02F0D8FF0321A06A16F086F929463846C3
:4005C00018F0E8FC0646344918F0E4FB00952B460922A16A304602F0C5FF2946606A15F097FDE0602D4915F07DFD2D4E3146E06802F030FB2946606A15F08AFD20612949E1
:4006000015F070FD3146206902F024FB2946606A15F07EFD6061244915F064FD3146606902F018FB2946606A15F022FB1F4E306000952B460222114616F066F91C4B7F225F
:400640002946306804F0D2FA1A49306802F002FBE168606800F078FC2169606800F074FC6169606800F070FC3168606800F06CFCE06800F02BFDA06AFFF774FEA06AFFF729
:4006800029FEA06AFFF7F4FE03B0BDE8F08300BFF481FF1F4CDD010058DD010060DD0100B10100006CDD010080DD0100E8F6FF1F90DD0100C1000000102925D110B5134B8F
:4006C000186817F077F804461DF006F9022C11D10F4C0021206805F075FB002120681BF0C1FB206800F0F2FC01210A4B986900F0CBFC10BD064C2021206805F063FB0121D3
:4007000020681BF0AFFB10BD704700BFF8F6FF1FC8F6FF1FF481FF1F08B5012010F026FC08BD00BF08B501201CF0A4FB01201CF03DFE08BD00B583B01CF03EFE8DF80700C8
:400740001CF0BCFB01280DD19DF8073013F0010F08D01DF023F900201CF028FE1CF090FB00F0A2F803B05DF804FB00BF30B595B031481DF0DDF831481DF002F91DF040F94A
:400780001DF08AF81CF07AFE1CF03AFB1DF038F82B4900201DF042F81CF0B0FF1CF0FEFF62B602F079F9274C274D4FF4486304F12C022649284610F00FFA08A810F0E4F922
:4007C000234B0B930995234B139308A810F0C6FA684610F049FB04238DF800301E4B0193684610F055FBA06000F054FB206200F051FBE06100F04EFB606000F04BFBA06194
:400800006168A06801F028FD002108A800F01EF91CF0F6FF0021084603F062F90F4C2060FFF77EFE206800F093FA01201CF03CFF12F014F8F9E700BF25070000350700006C
:4008400019070000F481FF1F20B4FF1F209BFF1FA5090000CC80FF1FA1000000F4F6FF1F08B51CF0FDFA0028FBD108BDC9B170B50E46144605460B4B1A80FFF7F1FF14F04E
:40088000010F04D0314628461CF0C8FA70BD04F00204A4B224B93246002128461CF014FB70BD704758B4FF1F08B5054B1B8803F004039BB21BB105F05BFF10F0FBF908BD4C
:4008C00058B4FF1F70B582B004460D461646FFF7C7FFE36A5B6801212046984700220023CDE900230023012231462846FFF7BEFF02B070BD30B585B0054604AC04F8011D41
:40090000FFF7AEFFEB6A5B6800212846984700220023CDE900230023012211462046FFF7A5FF05B030BD00BF30B583B004460D46074B1868019036212046FFF7DBFF0122AA
:4009400001AB59192046FFF7BDFF03B030BD00BF98DD010070B582B004460D461646FFF77FFFE36A5B6801212046984700220023CDE900230023042231462846FFF776FF7A
:4009800002B070BD38B50446C56A6B690BB1984738BD0121FFF7AEFFAB6805212046984738BD00BFF0B583B006460D461746B1F90420B1F90010541A013424B2B5F90630DE
:4009C000B5F902E0CEEB030301331BB203FB04F464000B128DF804308DF8051013128DF806308DF807202A21FFF784FF04220DEB02013046FFF766FFB5F902301A128DF80A
:400A000004208DF80530B5F906301A128DF806208DF807302B213046FFF76CFF04220DEB02013046FFF74EFF2C213046FFF762FFA2B239463046FFF78DFF03B0F0BD00BF60
:400A400008B5C36A1B68984708BD00BF2DE9F04FF3B004460D464FF4E172002101A81DF01FF9CF238DF8043083238DF8063030238DF8073003218DF81510ED238DF81630C8
:400A800064238DF817308DF8181012238DF8193081238DF81A3004228DF82720E8238DF8283085238DF8293001238DF82A3079208DF82B008DF83910CB218DF83A10392131
:400AC0008DF83B104FF02C088DF83C8034218DF83E104FF0020C8DF83FC005218DF84B10F7208DF84C0020208DF84D008DF85D30EA208DF85E008DF86FC0C0208DF87000F1
:400B000026208DF871008DF88130C1268DF882604FF011068DF883608DF89330C5268DF8946035268DF895603E268DF896608DF8A5C0C7268DF8A660BE268DF8A7608DF880
:400B4000B73036268DF8B86028268DF8B9608DF8C9304FF03A0E8DF8CAE055268DF8CB608DF8DB30B1268DF8DC601B268DF8DE608DF8EDC0F2268DF8EE6008268DF8EF60FF
:400B80008DF8FF308DF800018DF801318DF81131E0208DF812014FF01F098DF813911A208DF814014FF0180A8DF815A10A208DF816010F278DF8177106268DF81861452647
:400BC0008DF8196187268DF81A6132268DF81B618DF81C0107268DF81D618DF81EC18DF81F618DF820118DF823714FF0E10C8DF824C14FF0250C8DF826C14FF0270C8DF87D
:400C000027C18DF828114FF0100B8DF829B14FF0090B8DF82AB18DF82BE14FF0780B8DF82CB14FF04D0B8DF82DB18DF82E118DF82FA10D218DF8301138218DF831118DF841
:400C400032E18DF833918DF835712A218DF83611EF218DF83A118DF847212B218DF848118DF84B313F218DF84C118DF859218DF85A81B7218DF86C118DF86D618DF87D31DD
:400C8000B6238DF87E318DF87F0182238DF880318DF881C18DF88F214FF011038DF8903180238DF8A13129228DF8A2218DF8B331FF238DF8C531D4F82C8005B901AD2046D5
:400CC000FFF760FE002615E0E95C2046FFF712FE7A7C02F01F02791C2046FFF7F3FD97F91130002B04DAD8F808306421204698470136B6B206EBC6025300EF187A7CFF2A6D
:400D0000E2D101212046FFF79BFE02212046FFF70BFE20212046FFF7EDFD73B0BDE8F08F08B5034610B90FF065FF03460BB1186C08BD002008BD00BF08B5034610B90FF0A1
:400D400059FF03460BB1586C08BD002008BD00BF10B5044602F080F818B10464204602F0DFFA10BD08B5034610B90FF043FF03460BB1986C08BD002008BD00BF08B50346B9
:400D800010B90FF037FF03460BB1D86C08BD002008BD00BF10B5002407E090F8343013F0200F00D0044602F031F80028F5D114B1204602F0EDFA10BD2DE9F843037E13F0CC
:400DC000010F5DD1904689460646C468012700256CB9337E13F0100F01D1002D50D1002F4ED03046C847044600273B4600E0012315B9002C44D025462BB121463046C04732
:400E0000044685423CD0002CE2D00021206803F07FF910F0200FDBD1206802F0DDF90028D6D1F3689C422BD083B11868C369002217219847F36800220E21186801F070FFD0
:400E400001281DD1F368186802F06AFAF4602068C369002216219847F36800220D21186801F05EFF01280BD1F3681868FFF792FFF368186802F054FA33690BB13046984742
:400E8000BDE8F88308B51C21014810F043FF08BD6CF8FF1F10B5144810F044FF044610F0F3FE28B922460023104810F0F3FEFEE7BCB10421204610F02DFF0022E260237EE4
:400EC000226103F0FE0343F0040303F0FD0343F018032376042104F1140011F0B1FB204610BD002010BD00BF6CF8FF1F9CDD010008B5024A0249FFF75FFF08BDB51D010071
:400F00009D1D010008B5024A0249FFF755FF08BDC51D0100A91D010038B50446037EC3F3001543F01003037603F0080313B9FFF7DFFF04E003F0FF020AB1FFF7E3FF237EFD
:400F400065F30413237638BD88B370B505460C46064610F023FF06E00368A34226D00146304610F027FF0028F6D1A36B33B1204604F0EAF910B1A06BFFF7CEFFA5632846D7
:400F800010F0EEFE064610F07FFE28B932460023074810F07FFEFEE746B13460284610F0FDFE864202D12846FFF7B6FF70BD70479CDD0100F8B5876B002F43D0FB68002BDA
:400FC00040D005461B6898421CD13B7E13F0010F03D03B7E6FF300033B76384610F0DEFEFB6883420BD1384610F0DEFEFB68834205D11868C36900221721984702E03846E3
:40100000FFF78AFFFB681B689D4201D10023FB603E46384610F0C2FE044611E023689D4209D12146384610F009FF204611F0E6F80023AB63F8BD2146304610F0BBFE0446E3
:40104000002CEBD1F8BD00BF18B1C3681BB118687047002070470020704700BF10B582B00191FFF7F1FF60B10446C36901AA18219847012806D101AA0C21204601F050FE7A
:4010800000E0012002B010BDF0B138B50446037EC3F34003994216D0037E61F341030376FFF7D2FF054670B1C369002216219847E36800220D21186801F032FE012802D13C
:4010C000284602F02DF938BD704700BF002851D0F8B50546866B002E4BD0337E13F0010F47D1F36813B11B68984242D000213046FFF7CAFF3746304610F050FE044636E023
:4011000023689D422ED1F36883B11868C369002217219847F36800220E21186801F000FE012826D1F368186802F0FAF8F46004B32068C36900221621984733690BB1304613
:401140009847F36800220D21186801F0E9FD01280FD1F368186802F0E3F8F3681868FFF719FEF8BD2146384610F024FE0446002CC6D1F8BD704700BF18B1007EC0F34000C7
:4011800070470020704700BF90F8543013F0020F21D010B400238363C36390F84A1090F85420C36403650386438601F0FC01032464F3840180F84A108386C386A0F84630FC
:4011C000A0F8483002F0FE0263F3410280F85420014A136010BC70475CB4FF1F90F8343003F0020303F0FF0013B10022024B1A60003018BF012070475CB4FF1F10B504465A
:4012000020B90BE0204601F001FE0446204602F045FC28B1002CF5D1204610BD002010BD204610BD90F82A3013F0020F00F0CA80F0B585B00446C069FFF7E0FF05460028CE
:4012400000F0BE8002F018FCB8B994F82A306FF3410384F82A30EB695B4A52681321284698472046FFF7BAFF002840F0A98000220921284601F054FDA2E0284602F0EAFBDA
:401280000646B4F91410504B5A68537EC3F1640303FB01F14D4880FB0173C917C1EB6311A182B4F91630517EC1F1640101FB03F380FB0310DB17C3EB6013E3826369002B69
:4012C00068D06946284601F045FE284601F05CFEB4F91430184407B2284601F071FEB4F91620104401B2032E05D10A463946284602F078F819E0012E04D13946284602F06C
:40130000C7F812E0022E03D1284602F0D9F80CE0042E0AD1B4F9103023B13946284602F0B7F802E0284602F0CBF802A9284601F011FEBDF90020BDF908309A4203D0B4F941
:401340001430002B3CD1BDF90220BDF90A309A4202D0B4F916309BBB94F82A306FF3410384F82A300023A381E381A382E382EB69154A52681321284698472046FFF72EFF24
:40138000F0B900220921284601F0CAFC2046FFF725FF15E094F82A306FF3410384F82A30EB691321284698472046FFF717FF38B900220921284601F0B3FC2046FFF70EFF41
:4013C00005B0F0BD704700BF5CB4FF1F1F85EB5138B5044690F8343013F0080F0AD000238361C361C362036390F8342063F3C30280F83420A069584B1860002800F09D801E
:40140000102102F06FFE002838D0534B1868C5695A680E21A8472046FFF7E0FE002840F0998094F82A3013F0020F1BD194F8343013F0010F0BD100220321474B186801F007
:401440006FFC2046FFF7CAFE002840F0838000220621414B186801F063FC2046FFF7BEFE002877D1002207213B4B186801F058FC2046FFF7B3FE00283AD038BD364B18688B
:40148000C5695A680E21A8472046FFF7A7FE002860D194F8343013F0010F0FD194F82A3013F0020F0AD1002203212B4B186801F037FC2046FFF792FE00284BD194F82A3096
:4014C00013F0020F0AD100220621234B186801F027FC2046FFF782FE00283BD1002207211D4B186801F01CFC2046FFF777FE88BB194B1868FFF782FE0546D0B102F0BCFA85
:40150000B8B194F82A3013F0020F12D0EB691BB100221221284698472046FFF75FFEC8B900220A21284601F0FBFB2046FFF756FE80B90023A361E3622363E36953B194F811
:40154000343013F0020F05D12046FFF76BFE2046FFF744FE38BD00BF5CB4FF1F70B50446554D286804F05EFE06462021286802F0B9FD002840F09E80236A9E4200F09A8035
:40158000304603F035FE0546206A18B103F030FE034600E00023AB4234D14DB13046FFF795FD2046FFF71AFE002800F0828070BD206A90B10022172101F0E2FB2046FFF78C
:4015C0000DFE002876D100220E21206A01F0A8FB2046FFF703FE00286CD100221621304601F0CEFB2046FFF7F9FD002862D100220D21304601F094FB2046FFF7EFFD002854
:4016000057D070BDA3B9206A90B10022172101F0B7FB2046FFF7E2FD00284BD100220E21206A01F07DFB2046FFF7D8FD30B370BD206A18B38BB90022172101F0A1FB204648
:40164000FFF7CCFDB0BB00220E21206A01F068FB2046FFF7C3FD88B170BD0022152101F08FFB2046FFF7BAFD20BB00220F21206A01F056FB2046FFF7B1FDD8B93DB13046B1
:40168000FFF724FD2046FFF7A9FD90B170BD00221621304601F074FB2046FFF79FFD48B900220D21304601F03BFB2046FFF796FD00B9266270BD00BF5CB4FF1F2DE9F04FEF
:4016C00083B004468069FFF799FD002800F05981054602F0ADF9002800F05381284602F0B9F9064694F82A3013F0010F44D1B4F90C20238A13441BB22382B4F90E10628AC5
:401700000A4412B26282012803D0032803D0002002E0012000E00120B11EC9B2012901D9002100E00121042E0CD183EAE37EAEEBE37E82EAE277A7EBE277BE4501DD01209B
:4017400000E0012138B1002BB8BF5B428E484068007E834208DA89B1002AB8BF52428A4B5B681B7E9A420BDB94F82A3043F0010384F82A30012704E0002702E0002700E02B
:40178000002794F82A3013F0010F00F0FA80E368002B00F0F680B5F910A0B5F912B0284601F034FB01F028FC0090284601F02EFB01F038FC0190284601F0E6FB8046284610
:4017C00001F0FEFB8146032E13D1002F60D094F82A30032262F3840384F82A30B4F9103098440FFA88F8B4F9123099440FFA89F94EE0012E10D1002F4AD094F82A300122CE
:4018000062F3840384F82A3000236382B4F9103098440FFA88F83BE0022E0FD1C7B394F82A30022262F3840384F82A3000232382B4F9123099440FFA89F929E0042E27D1E9
:4018400037B3B4F9102082EAE270A0EBE270B4F9123083EAE371A1EBE37188420CDD94F82A30012161F3840384F82A300023638290440FFA88F80BE094F82A20022161F36D
:40188000840284F82A200022228299440FFA89F9012E0FD0032E0DD0042E10D1B4F91020002AB8BF5242B4F91230002BB8BF5B429A4204DDB4F90C3098440FFA88F8B31E63
:4018C000DBB2012B0DD9042E10D1B4F91020002AB8BF5242B4F91230002BB8BF5B429A4204DAB4F90E3099440FFA89F9264B5B6818690FF0F5F906464A464146284601F085
:4019000071FD94F82A3043F0020384F82A30B5F910309A4522D1B5F912309B451ED1284601F074FA01F068FB8046284601F06EFA01F078FB009B434510D1019B83420DD171
:40194000DFF84480D8F8043018690FF0C9F9D8F80430811B89B218690FF0C8F98FB1EB69094A52681121284698472046FFF736FC38B900220821284601F0D2F92046FFF7FA
:401980002DFC03B0BDE8F08F5CB4FF1FF8B590F82A3013F0200F69D10546846903E0204601F034FA044624B1204602F07DF80028F5D1002C5AD0B5F90C1081EAE170A0EB1D
:4019C000E1702B4B5A68937E984209DAB5F90E000028B8BF4042834202DD0023EB842B85EB8C194409B2E984B5F90E002B8D03441BB22B8581EAE176A6EBE176D07E8642D9
:401A000005DC83EAE377A7EBE377B8422EDA95F82A0040F0200085F82A0083EAE370A0EBE370864209DD002903DD032385F824300CE0022385F8243008E0002B03DD01231D
:401A400085F8243002E0002385F82430E3691421204698472846FFF7C1FB38B900220B21204601F05DF92846FFF7B8FBF8BD00BF5CB4FF1FF8B58B7B012B05D190F8543073
:401A800013F0080F40F06F8190F8543013F0080F0BD090F854300022C26403F0F70362F3000380F8543080F82420C66D002E00F05A810D4604463046FFF7C6FAAA4B186038
:401AC000002800F05081A16A6B68A36294F82420AB7B84F82430AB7B012B5DD1002A5BD10FF04EFAE06469680A291CD13046FFF7B5FA9D4B1868C36900220B2198472034D2
:401B00002046FFF76BFB002840F02D8100221146954B186801F004F92046FFF75FFB002800F01E81F8BD1B2910D13046FFF796FA002214218C4B186801F0F2F804F1200035
:401B4000FFF74CFB002800F00B81F8BD09290ED100213046FFF798FA3046FFF7C9F904F12000FFF73BFB002800F0FA80F8BD0B290ED100213046FFF787FA3046FFF7C2F9A1
:401B800004F12000FFF72AFB002800F0E980F8BD3046FFF763FAE3E0012B40F0A580012A40F0A2806B680A2B17D1C36900220C21984704F120073846FFF710FB002840F0F8
:401BC000D28000220121684B186801F0A9F83846FFF704FB002840F0C68094F8543013F0010F2CD1E06C0FF0D7F9A38B984226D994F8543043F0010384F854306B680A2BE8
:401C000040F0AE800FF0BCF92065574B1868C36900220F21984720342046FFF7DFFA002840F0A180002204214F4B186801F078F82046FFF7D3FA002800F09280F8BD94F836
:401C4000543013F0010F00F08B80206D0FF0A4F9E38B984240F284800FF092F9206569680A2917D1404B1868C36900221021984720342046FFF7B2FA002874D100220521B6
:401C8000394B186801F04CF82046FFF7A7FA002866D0F8BD09290DD100213046FFF7F4F93046FFF725F904F12000FFF797FA002856D0F8BD0B290DD100213046FFF7E4F9AC
:401CC0003046FFF71FF904F12000FFF787FA002846D0F8BD3046FFF7C1F904F12000FFF77DFA00283CD0F8BD002B39D1012A37D169600A292CD1C36900220E21984704F19E
:401D000020052846FFF76AFA68BB94F8543013F0010F09D100220321134B186801F000F82846FFF75BFAF0B9002206210E4B186800F0F6FF2846FFF751FAA0B900220721CE
:401D4000094B186800F0ECFF2846FFF747FA50B90022E26494F8543062F3000384F854300022014B1A60F8BD5CB4FF1F2DE9F04182B08B7B012B05D190F8543013F0080FC4
:401D800040F01C8290F8543013F0080F0BD090F854300022C26403F0F70362F3000380F8543080F8242090F824708B7B80F824304B688362C66D002E00F000820C4605460D
:401DC0003046FFF741F9AB4B1860002800F0F681A37B0BB10023A3813046FFF735F9A54B1860002800F0EA81A37B012B58D1002F56D10FF0C5F8E86461680A292BD102AA25
:401E0000002302F8013D9B4B1868C369192198473046FFF7B1F920B99DF80730002B40F08381944B1868C36900220B21984720352846FFF7D3F9002840F0C0810022114633
:401E40008C4B186800F06CFF2846FFF7C7F9002800F06A81B2E1142904D1B4F90C30013BA38161E1132904D1B4F90C300133A3815AE11B2910D13046FFF7F0F800221421FC
:401E80007C4B186800F04CFF05F12000FFF7A6F9002800F0498191E13046FFF7DFF843E1012B40F09C80012F40F0998095F8543013F0010F4DD1E86C0FF06EF8AB8B98423E
:401EC00047D995F8543043F0010385F854300FF057F8286563680A2B34D102AA002302F8013D644B1868C369192198479DF8077077B1304610F044F8804618BB3046FFF733
:401F00003BF900B1474639463046FFF7BDF819E0584B1868C36900220F21984705F120073846FFF75BF9002840F0488100220421504B186800F0F4FE3846FFF74FF90028E8
:401F400040F03C8195F8543043F0010385F85430EAE095F8543013F0010F00F0E580286D0FF01AF8EB8B984240F2DE800FF008F8286561680A2919D13E4B1868C369002299
:401F80001021984720352846FFF728F9002840F0158100220521374B186800F0C1FE2846FFF71CF9002800F0BF8007E1142904D1B4F90C30013BA381B6E0132904D1B4F9E9
:401FC0000C300133A381AFE03046FFF747F805F12000FFF703F9002800F0A680EEE0002B40F0A280012F40F09F8063680A2B40F0938002AA002302F8013DC3691921984774
:402000009DF80720002A37D11A4B1868C3690E21984705F120073846FFF7E0F8002840F0CD8095F8543013F0010F05D100220321104B186800F074FE3846FFF7CFF80028A5
:4020400040F0BC80002206210A4B186800F068FE3846FFF7C3F8002840F0B08000220721044B186800F05CFE3846FFF7B7F8002852D0A3E05CB4FF1F337E03F0020303F0AC
:40208000FF01002B3DD095F8543013F0010F04D030460FF075FF00283ED04A4B1868C36900220E21984705F120073846FFF796F8002840F0838000220321424B186800F0A3
:4020C0002FFE3846FFF78AF8002877D1002206213C4B186800F024FE3846FFF77FF800286CD100220721374B186800F019FE3846FFF774F8002861D10A213046FEF7AEFFCB
:402100000AE04AB141B995F8543013F0010F03D101213046FEF7B8FF0022EA6495F8543062F3000385F854300022264B1A60B4F90C30002B42D03046FFF71EF800B3B4F995
:402140000C30002B0DDA05E014213046FEF786FF013500E00025B4F90C305B429D42F3DB2CE0002B06DC29E013213046FEF776FF013500E00025B4F90C309D42F4DB1DE094
:40218000B4F90C30002B0CDA04E03046FEF7BAFE013500E00025B4F90C305B429D42F4DB0CE0002B05DC09E03046FEF7A1FE013500E00025B4F90C309D42F5DB02B0BDE89A
:4021C000F08100BF5CB4FF1F014B5868704700BF5CB4FF1F08B1007870470020704700BFA0B1034690F8542042F0020280F85420154A5268904202D10020134A106011B12E
:402200001A6C914201D100221A64704710B50C4600200EF079FE14E090F8543043F0020380F85430084B5B68984202D10022064B1A6014B1036C9C4201D1002303640EF020
:4022400063FE0028E8D110BD5CB4FF1F08B500210846FFF7C5FF08BD0378022B01D0042B00D1C165704700BF034618B900230B804B8070470278012A06D0032A04D04FF656
:40228000FF730B804B807047B3F924200A80B3F926304B80704700BF024648B10378012B01D0032B06D192F84A00C0F3400070470020704700207047034618B900230B8030
:4022C0004B8070470278012A05D0032A03D000230B804B807047B3F92C200A80B3F92E304B807047014B1868704700BF5CB4FF1F2DE9F04180460F4603F060F840B308F19B
:40230000040630460FF04AFD044600250AE039462046FFF7EDFF054630B9214630460FF049FD0446002CF2D1ADB9404601F06EFB48B910E0204600F04FFF38B9204600F006
:4023400065FD044600E04446002CF3D11CB901E0002500E045462846BDE8F08183698D4A136090F8342012F0080F40F0A48170B50446884A52681569F3B92846FEF7FEFC8B
:40238000261D3146FFF7B4FF824B186038B92846FEF7E8FC3146FFF7ABFF7E4B18607D4B1B6893BB2846FEF7BBFC3146FFF7A0FF784B186001232FE090F82A2012F0020FD3
:4023C00025D11021184601F08DFE10BB2846FEF7D5FC261D3146FFF78BFF6E4B186038B92846FEF7BFFC3146FFF782FF694B1860684B1B687BB92846FEF792FC3146FFF781
:4024000077FF644B1860012306E0012304E0002302E0002300E001233BB1E3692BB10023A382E3822046FEF7FDFE5A4B186840B1002101F06DFE10F0200F02D0A269554B6B
:402440001A60A569534B1B689D4279D0B4F904302381B4F906306381B5B1EB694D4A52680D21284698472046FEF7B8FE002840F0218100220221284600F052FC2046FEF762
:40248000ADFE002840F01681424B1B68A361E361002B55D00EF074FDE06294F834306FF3000384F8343094F82A2000232382638202F0FC02032161F3840263F3451284F85A
:4024C0002A20E3842385A381E381324A10681D4607E090F8343013F0200F00D0054600F095FC0028F5D115B1284600F051FF294B1868C5695A680B21A8472046FEF76EFEDB
:40250000002840F0D78000221146224B186800F007FC2046FEF762FE002840F0CB801D4B586890F8543013F0080F40F0C3802030FFF714F82046FEF751FE002840F0BA80E6
:40254000B4F90430B4F90800181A00B2A081B4F90630B4F90A10591A09B2E181B4F9142002EB820242F3CF02A282B4F9163003EB830343F3CF03E382002A02DA0132A282D9
:4025800003E0002A01DD013AA282002B04DA0133E38205E05CB4FF1F002B01DD013BE382A38A03EB6000A082E38A03EB6101E182414B186800287DD0C3693F4A52680C2198
:4025C00098472046FEF70AFE002873D100220121394B186800F0A4FB2046FEF7FFFD002868D1354B5B6893F8543013F0080F61D12046FFF763F82046FFF7C8F92046FEF7D1
:40260000EDFD002856D194F82A3013F0020F29D194F8343013F0010F24D1E06A0EF0BCFC254B5A68938B98421CD9234B1868C3690F2198472046FEF7D1FD00283AD10022AF
:4026400004211D4B186800F06BFB2046FEF7C6FD80BB94F8343043F0010384F834300EF08FFC206394F82A3013F0020F22D194F8343013F0010F1DD0206B0EF08DFC0E4B43
:402680005A68D38B984215D90B4B1868C369102198472046FEF7A2FD60B900220521064B186800F03DFB2046FEF798FD10B90EF067FC206370BD70475CB4FF1F38B50446E6
:4026C0000D46806D48B1A26A0B689A4205D0B1F90220B1F9001000F085FEB5F90030A384B5F90230E38494F82030012B04D104F12000FFF733FE03E004F12000FEF768FEC0
:40270000B4F924302385B4F92630638538BD00BF036E0BB310B504468A6833F9222082848A6803EB8203B3F90230C384826A436A9A4206D18B7B012B03D12030FFF70EFE7F
:4027400003E004F12000FEF743FEB4F924302385B4F92630638510BD704700BFC0682D4B58600369002B53D030B585B0FEF70CFD284B5B6893F8543013F0040F46D1254C47
:40278000694660680EF0CEFB05466068FEF7FCFC0023236063689DF80E2083F82020012A05D11C690EF0ECFBC4F87C010AE01A78042A07D1BDF90C2022B11C690EF0E0FBB3
:4027C000C4F87C01134B58680378012B03D16946FFF774FF10E0022B03D16946FFF74AF90AE0042B03D16946FFF7C0FA04E0032B02D16946FFF78CFF064B5868FEF7C4FCEF
:40280000002DBCD1034B00225A601A6005B030BD704700BF5CB4FF1F054B1B6805E01A68824201D101221A719B68002BF7D1704764B4FF1F50284CD01DD818280DD81528A8
:4028400047D2072805D8042843D20138012842D83FE0103803283ED83BE0332806D8302837D2202835D02C2835D132E0402830D0422830D12DE0FF282BD00ED86E2828D0EA
:4028800004D8542825D0602825D122E07F2820D091281ED072281ED11BE048F28303984217D00AD848F20C03984212D013D3A0F50040803801280ED80BE048F2A0039842FD
:4028C00007D048F2AD03984203D048F28E03984201D1012070470020704700BFF8B50E461546071D38460FF059FA044617E0B2B2238A13442382ABB2618A19446182A18A34
:402900000A44A282E28A1344E3822A4631462046FFF7E4FF214638460FF04CFA0446002CE5D1F8BD38B504460D46BC221BF09EF900287FD0B4F99220B5F992309A427BD154
:40294000B4F99400B5F99410884277D1B4F99800B5F99610884273D1B4F99600814271D19A4271D1B4F99A20B5F99A309A426DD1B4F99C20B5F99C309A4269D1B4F99E0068
:40298000B5F99E10884265D1B4F9A000B5F9A210884261D1B4F9A20081425FD19A425FD1B4F9A620B5F9A6309A425BD1B4F9A820B5F9A8309A4257D1B4F9AA20B5F9AA30C7
:4029C0009A4253D1B4F9AC20B5F9AC309A424FD1B4F91A20B5F91A309A424BD1B4F91C20B5F91C309A4247D1226C2B6C9A4245D194F8500095F85010884241D19A4241D180
:402A0000B4F92820B5F928309A423DD1B4F92220B5F922309A4239D1B4F92420B5F924309A4235D1B4F92620B5F926309A4231D0022038BD002038BD022038BD022038BDD9
:402A4000022038BD022038BD022038BD022038BD022038BD022038BD022038BD022038BD022038BD022038BD022038BD022038BD022038BD022038BD022038BD022038BDE6
:402A8000022038BD022038BD022038BD022038BD022038BD012038BD264B1B79002B47D100B585B00FF036FB10F00CF80EF062FBFEF7E8F9102120480FF02CF94FF4C071C5
:402AC0001E480FF027F964211D480FF023F94FF00000052363F302006FF3C700162363F30C206FF34F304FF00001062262F30201082262F3C70163F30C21042363F34F3141
:402B0000104B029301930093012213F05BF810F0AFFC03F0B5FDFFF799FB0DF00BF801200CF08EFC0122034B1A7105B05DF804FB704700BF64B4FF1FBCF7FF1F18F7FF1FD5
:402B40000CF7FF1FE480FF1F38B504460D460FF09BF828B92246002305480FF09BF8FEE794F8343065F3000384F8343038BD00BFB0DD010038B504460D460FF085F828B912
:402B80002246002307480FF085F8FEE71DB101212046FFF7D9FF94F8343065F3410384F8343038BDB0DD010038B504460D460FF06BF828B92246002305480FF06BF8FEE7DB
:402BC00094F8343065F3820384F8343038BD00BFB0DD010038B504460D460FF055F828B92246002305480FF055F8FEE794F8343065F3C30384F8343038BD00BFB0DD0100F6
:402C000038B504460D460FF03FF828B92246002304480FF03FF8FEE794F83C302B4384F83C3038BDB0DD010038B504460D460FF02BF828B92246002305480FF02BF8FEE7C4
:402C400094F83C3023EA050384F83C3038BD00BFB0DD010038B504460D460FF015F828B92246002302480FF015F8FEE7A56138BDB0DD01002DE9F04184B0074615461E46D0
:402C80000C4649B108460EF0FFFF28B92246002321480EF0FFFFFEE7019400238DF8083003931E4B1B6803B103931C4B01AA1A60D3F808809E60FFF787FA18B183680BB1C3
:402CC0002946984717B129462046B847134BC3F808801A6892681A609DF808307BB984B194F8343013F0400F0DD0206868B13246294600F015F8012809D0002008E000204F
:402D000006E0012004E0012002E0012000E0012004B0BDE8F08100BFB0DD010064B4FF1F98B170B5044616460D460EF0ADFF28B92246002306480EF0ADFFFEE733462A46F3
:402D40002146A069FFF796FF70BD0120704700BFB0DD0100014B9868704700BF64B4FF1F38B504460D460EF08FFF28B92246002302480EF08FFFFEE7E56138BDB0DD010008
:402D800020B110B5C4691CB1A04710BD01207047012010BD38B504460D460EF075FF28B92246002302480EF075FFFEE7256238BDB0DD010038B504460D460EF065FF28B929
:402DC0002246002306480EF065FFFEE72946606A0FF048FB08B1606238BD002038BD00BFB0DD010010B504460EF04EFF28B92246002305480EF04EFFFEE700226286E369CD
:402E000006212046984710BDB0DD010010B504460EF03AFF28B92246002303480EF03AFFFEE7206810BD00BFB0DD010010B504460EF02AFF30B92246002306480EF02AFFF1
:402E4000FEE71C462046FFF7E1FF03460028F8D1204610BDB0DD010070B504460EF014FF28B92246002314480EF014FFFEE723681BB12046FFF7DAFF044610480EF08EFFDD
:402E8000054612E005F1340630460EF087FF05E084420ED0014630460EF08CFF0028F7D1294606480EF086FF0546002DEAD1002070BD284670BD00BFB0DD010018F7FF1F17
:402EC00038B504460D460EF0DFFE28B92246002306480EF0DFFEFEE71DB9201D0EF05EFF38BD2946201D0EF065FF38BDB0DD010038B505460021FFF7E3FF044612E094F806
:402F0000353003F06003602B07D1002205212046FFF736FF2046FFF7EBFF21462846FFF7CFFF0446002CEAD138BD00BF03290FD810B5044690F8353061F3461380F835303D
:402F400000220521FFF71CFF2046FFF7D1FF10BD704700BF38B504460D460EF095FE28B92246002307480EF095FEFEE704F11003082204E013F8011B05F8011B013A002A82
:402F8000F8D138BDB0DD010010B504460EF07CFE28B92246002309480EF07CFEFEE72046FFF734FF30B1B4F91030B0F91000181A00B210BDB4F9100010BD00BFB0DD010086
:402FC00010B504460EF060FE28B92246002309480EF060FEFEE72046FFF718FF30B1B4F91230B0F91200181A00B210BDB4F9120010BD00BFB0DD010010B504460EF044FE91
:4030000028B92246002306480EF044FEFEE7B4F91430B4F91000181A013000B210BD00BFB0DD010010B504460EF02EFE28B92246002306480EF02EFEFEE7B4F91630B4F932
:403040001200181A013000B210BD00BFB0DD010010B504460EF018FE28B92246002304480EF018FEFEE794F8490000F0010010BDB0DD010009B92830704700B583B08DF8DC
:403080000010002301936A460821FFF779FE012801D1019800E0002003B05DF804FB00BF2DE9F8430746884691461E4618480EF07BFE044628E0B44228D0214614480EF02A
:4030C00081FE05462068B8421DD1A179414502D0B8F1FF0F17D1A3884B4502D0B9F1FF0F11D1FFF7C7FF04F0ABFCA18803F026FF002120460EF07EF8214605480EF09EFE7D
:4031000020460FF07BF82C46002CD4D1BDE8F883BCF7FF1F38B504460D46FFF7ABFF38B104F098FC0023FF2229462046FFF7B8FF38BD00BF70B505460E4600240AE0214635
:403140002846FFF797FF38B1427966F3C30242710134E4B23F2CF2D940240AE021462846FFF788FF38B1427966F3C30242710134E4B2FF2CF2D170BD38B5046815480EF030
:403180000DFE002512E0A0420CD0026823689A4208D1436823F07F42636823F07F439A4200D1012501460B480EF004FE0028EAD145B9A1792068FFF75DFF04F041FCA188CA
:4031C00003F0BCFE214603480EF038FE20460FF015F838BDBCF7FF1F10B504460EF054FD28B92246002304480EF054FDFEE794F83400C0F3001010BDB0DD01002DE9F04195
:4032000082B004460D46FFF7E7FF00285BD106462046FFF70BFE0746FFF71EFE8046FDF77FFD87420ED04046FDF786FD874209D04046FDF797FD874204D04046FDF79EFD43
:40324000874242D1B4F9327004F110016A46082304E011F8010B02F8010B013B002BF8D1BBB2BDF80020D21AADF80020BDF80220D21AADF80220BDF804201A44ADF8042096
:40328000BDF806201344ADF806306A46294628460EF0AAF8D0B12046FFF7B8FD04460EE004F11002294628460EF09EF870B12046FFF792FF50B92046FFF7A8FD0446002C04
:4032C000EED1012602E0002600E00126304602B0BDE8F08130B583B005460C460EF0D4FC58B92A4600230D480EF0D4FCFEE714F8011B02F8011B013B01E06A460823002B0B
:40330000F5D169462846FFF779FF28B12846FFF7A3FD694603F0B6F903B030BDB0DD010030B583B004460EF0AFFC28B92246002316480EF0AFFCFEE7B4F9323004F1100069
:403340006946082204E010F8015B01F8015B013A002AF8D19BB2BDF80020D21AADF80020BDF80220D21AADF80220BDF804201A44ADF80420BDF806201344ADF80630694690
:403380002046FFF7A7FF03B030BD00BFB0DD010070B505460EF078FC28B92A46002310480EF078FCFEE72846FFF730FD0446061D30460EF0F3FC854210D02046FFF7B0FF06
:4033C00001232A46314630460EF078FDE3692A460121204698472046FFF7A2FF70BD00BFB0DD01002DE9F04383B004460D4616460EF04AFC28B92246002324480EF04AFC6A
:40340000FEE727683FB1B7F910301D442DB2B7F912301E4436B2B4F91030ED1AADB20FFA85F8B4F91230F61AB6B20FFA86F9B8F1000F02D1B9F1000F25D02046FFF770FFF0
:4034400069462046FFF786FD238A2B442382638A33446382A38A1D44A582E38A1E44E6824A4641462046FFF739FAE3696A4602212046984727B1FB6922460121384698479B
:403480002046FFF74DFF03B0BDE8F083B0DD010038B504460D460EF0F7FB28B92246002306480EF0F7FBFEE72046FFF789FD024629462046FFF796FF38BD00BFB0DD010036
:4034C00038B504460D460EF0DFFB28B92246002306480EF0DFFBFEE72046FFF755FD2A4601462046FFF77EFF38BD00BFB0DD0100F0B583B004461D469DF8206001F11000D7
:4035000001AB04F110010EF0FBF82046FFF77EFCB0F91010B0F91270BDF80430BDF92400184480B2BDF80630BDF928201A4492B2411A09B2ADF80410D21B12B2ADF80620F7
:4035400025B11EB12046FFF74DFF09E01DB12046FFF79EFF04E01EB111462046FFF7B0FF03B0F0BD2DE9F04184B004460D4690461F46BDF928600EF087FB28B9224600235C
:4035800015480EF087FBFEE71DB92046FFF73EFC054628460EF078FB28B92A4600230E480EF078FBFEE70296019701230093424629462046FFF79CFF84F84880A4F844702A
:4035C000A4F84660256494F849306FF3410384F8493004B0BDE8F081B0DD01002DE9F04F83B0804601900F4616469A469DF830B0FFF7CAFC05464046FFF7E2FC04464046F2
:40360000FFF7FAFC00EBD07040F34F094046FFF709FD00EBD07040F34F08142E00F20B81DFE816F0150026002D00390043004D005C006900750084008B009700A100AB00C7
:40364000BA00C700CE00DA00E400EE00FD003846FFF7D2FC00EBD070C9EB60052DB23846FFF7E0FC00EBD070C8EB600424B2E2E0C9F100052DB2C8F1000424B2DBE0384659
:40368000FFF7BAFC00EBD070C9EB60052DB2C8F1000424B2CFE03846FFF7AEFCC9EB000005B2C8F1000424B2C5E0C9F100052DB23846FFF7B7FCC8EB000004B2BBE03846F1
:4036C000FFF79AFC00EBD070C9EB60052DB23846FFF7A8FCC8EB000004B2ACE03846FFF78BFCC9EB000005B23846FFF79BFCC8EB000004B29FE0C9F100052DB23846FFF7A3
:4037000091FC00EBD070C8EB600424B293E03846FFF772FCC9EB000005B23846FFF782FC00EBD070C8EB600424B284E0C9F100052DB2C8F1000424B27DE03846FFF75CFC5C
:4037400000EBD070C9EB60052DB2C8F1000424B271E03846FFF750FCC9EB000005B2C8F1000424B267E0C9F100052DB23846FFF759FCC8EB000004B25DE03846FFF73CFC84
:4037800000EBD070C9EB60052DB23846FFF74AFCC8EB000004B24EE03846FFF72DFCC9EB000005B23846FFF73DFCC8EB000004B241E0C9F100052DB2C8F1000424B23AE00B
:4037C000C9F100052DB23846FFF72CFC00EBD070C8EB600424B22EE0C9F100052DB23846FFF720FCC8EB000004B224E03846FFF703FCC9EB000005B2C8F1000424B21AE063
:403800003846FFF7F9FBC9EB000005B23846FFF709FC00EBD070C8EB600424B20BE03846FFF7EAFBC9EB000005B23846FFF7FAFBC8EB000004B20198FFF7E8FAB7F910E092
:40384000B7F91230B0F91010B0F91220BDF934007044284485B2BDF938001844204484B2691A09B2A21A12B2BAF1000F06D0BBF1000F03D00198FFF7B5FD0DE0BAF1000FC9
:4038800003D00198FFF704FE06E0BBF1000F03D011460198FFF714FE03B0BDE8F08F00BF2DE9F04184B004460D4690461F46BDF928600EF0E9F928B92246002315480EF06A
:4038C000E9F9FEE71DB92046FFF7A0FA054628460EF0DAF928B92A4600230E480EF0DAF9FEE70296019701230093424629462046FFF774FE84F84880A4F84470A4F84660A9
:40390000256494F8493043F0020384F8493004B0BDE8F081B0DD010010B582B004460EF0B3F928B92246002310480EF0B3F9FEE794F8493013F0020F0BD0B4F9443094F895
:403940004820B4F946100091216C2046FFF7A8FF0AE0B4F9443094F84820B4F946100091216C2046FFF7FEFD02B010BDB0DD010038B505460021FFF7A3FA044612E02046A9
:40398000FFF7CEFCE36900220421204698472046FFF7C6FC2046FFF7EBFF21462846FFF78FFA0446002CEAD138BD00BF38B504460D460EF069F928B92246002312480EF024
:4039C00069F9FEE794F8343013F0100F02D12046FFF7A6FC0DB9002200E0012294F8343062F3041384F8343013F0100F02D12046FFF796FC2046FFF709FA18B1C5692246D5
:403A00000121A84738BD00BFB0DD010010B504460EF03AF928B92246002304480EF03AF9FEE794F8340000F0010010BDB0DD010010B504460EF028F928B922460023044833
:403A40000EF028F9FEE794F83400C0F3400010BDB0DD010010B504460EF016F928B92246002304480EF016F9FEE794F83500C0F3820010BDB0DD010010B504460EF004F913
:403A800028B92246002304480EF004F9FEE794F83400C0F3800010BDB0DD010090F83400C0F3C000704700BF90F8350000F00100704700BF90F83500C0F34000704700BF31
:403AC00010B504460EF0E0F828B92246002303480EF0E0F8FEE7002010BD00BFB0DD01002DE9F0410D46064688BB0DF083F8002800F0ED8134300EF015F904460EF0C4F89A
:403B000028B9224600238A480EF0C4F8FEE7002C00F0E081502120460EF092FD94F835306FF3461384F83530824BE361824B23620027A7612782678238460DF061F8013809
:403B4000A08238460DF070F80138E08294E00EF09BF828B93246002378480EF09BF8FEE7301D0EF0DFF804460EF08EF828B9224600236F480EF08EF8FEE7002C00F0AD8128
:403B8000502120460EF05CFD266094F835306FF3461384F83530674BE361674B23620020A061B6F912306382778A0DF051F8322303FB00F000F15003B3F5A07F0FDB002001
:403BC0000DF046F8322303FB00F000F150035C4A82FB0312DB17C3EBA2139BB200E001233B44E3822046FFF76BFF012822D1B6F91430A382B78A00200DF02AF8642303FB42
:403C000000F000F15003B3F5A07F0FDB00200DF01FF8642303FB00F000F15003484A82FB0312DB17C3EBA2139BB200E00123FB1A238221E0B6F910302382378A00200DF0BB
:403C400007F8642303FB00F000F15003B3F5A07F0FDB00200CF0FCFF642303FB00F000F15003374A82FB0312DB17C3EBA2139BB200E001233B44A3825021201D0EF04AF8C0
:403C80000027678684F8307084F8317084F84870A4F84470A4F84670276494F8493067F3000384F8493004F14C08042140460EF0C7FCA76394F8342002F07F0242F00102B8
:403CC00094F83530032161F3840384F83C7002F0C10267F3861284F83420F21B18BF012262F3000367F3410384F8353084F83D70676204F12807384602F0F2FF55B926B1FB
:403D0000022120460FF0BAFB09E0012120460FF0B5FB04E005F12801384603F0CFFE002D00F0C98004F1100105F1100208230EE09CDD01004D62000019570000B0DD010031
:403D40006766666612F8010B01F8010B013B002BF8D1B5F93230638695F8303084F8303095F8313084F83130042205F14C0140460EF0E6FA95F83530C3F3411394F8352028
:403D800063F3461284F8352095F8483084F84830B5F94430A4F84430B5F94630A4F846302B6C236495F8492094F8493062F3000384F84930AB69A36195F83430DB0994F844
:403DC000342063F3C71284F8342095F8342094F8343062F3000384F8343095F83430C3F3400394F8342063F3410284F8342095F83530C3F3820394F8352063F3840284F8CE
:403E0000352095F83430C3F3800394F8342063F3820284F8342095F83430C3F3C003D2B263F3C30284F8342095F83430C3F30013D2B263F3041284F8342095F83430C3F37F
:403E40004013D2B263F3451284F8342095F83430C3F38013D2B263F3861284F8342095F83C3084F83C3095F8352094F8353062F3000384F8353095F83530C3F3400394F80E
:403E8000352063F3410284F83520A86B10B12146FDF75AF82846FEF7B9FF60B15EB12846FFF772F807462846FFF78AF8024639462046FFF797FA9EB1F36922460121304627
:403EC00098472046FFF72CFA2046BDE8F0810020BDE8F0810020BDE8F0810020BDE8F0812046BDE8F08100BFF0B583B004460D460DF0CAFE28B92246002330480DF0CAFE25
:403F0000FEE728460DF0C0FE28B92A4600232B480DF0C0FEFEE72368002B4DD0002D4BD02046FFF7FDF927682046FFF749F8ADF806002846FFF7C4FD0646012805D02046D3
:403F4000FFF722F8ADF8040006E0B7F91430B4F914209B1AADF80430206801232246291D04300DF0ABFF2560012E07D0BDF90620BDF904102046FFF735FA10E02846FFF7FA
:403F80003BF8BDF90430C01A86B22046FFF734F8311ABDF9062009B22046FFF723FAFB690022012138469847EB6922460121284698472046FFF7B4F903B0F0BDB0DD0100C8
:403FC00070B582B004460D4616460DF05DFE28B9224600232A480DF05DFEFEE72046FFF70BF8A84204D12046FFF71CF8B04245D02046FFF795F969462046FEF7ABFFB4F91E
:4040000012303344013BE3822046FFF759FD012805D1B4F914305B1B0133238204E0B4F910302B44013BA382E3696A460221204698472046FEF7EAFE18B1C569224601216C
:40404000A847261D30460DF0A9FE054609E0EB696A46032128469847294630460DF0AAFE0546002DF3D12046FFF75AF994F8493013F0010F02D02046FFF74EFC02B070BD67
:40408000B0DD010038B504460D460DF0FDFD28B92246002306480DF0FDFDFEE72046FEF7C1FF024629462046FFF78AFF38BD00BFB0DD010038B504460D460DF0E5FD28B918
:4040C0002246002306480DF0E5FDFEE72046FEF793FF2A4601462046FFF772FF38BD00BFB0DD010038B504460D460DF0CDFD28B92246002305480DF0CDFDFEE794F83C30C2
:404100002B4214BF0120002038BD00BFB0DD010030B583B004460D460DF0B6FD28B9224600230B480DF0B6FDFEE73F2D02D894F83D000BE08DF8045000238DF8053001AAA8
:4041400009212046FEF71CFE9DF8050003B030BDB0DD01002DE9F04383B006460D4690464FEA122914461FE029463046FEF782FF074629463046FFF7CBFF08EB002084B284
:4041800001AA2146384603F0B7FD012802D1BDF8040015E019F0800F08D025B93046FEF735FE064600E00025002EDDD124F4FE44293C012C02D8044B188801E04FF0000030
:4041C00003B0BDE8F08300BFACDD01002DE9F04383B007460E4690464FEA122914465BE031463846FEF746FF0546437913F0080F36D1027912F03F0F32D013F0040F05D19F
:4042000024F4FE423146384600F05CF824F4FE4348F20C02934206D048F2AD02934211D02C2B15D105E06B7913F0200F12D1002315E0AB7913F0100F3DD113F0080F0BD185
:4042400000230CE0EB7913F0100F07D1002306E0002304E0012302E0012300E00123EBB931463846FFF754FF08EB002084B20DF107022146284603F09FFD012802D19DF86C
:4042800007001BE019F0800F08D026B93846FEF7BDFD074600E00026002FA1D124F4FE44A4B26D2C05D048F2AD039C4201D02C2C03D1002002E0FF2000E0FF2003B0BDE831
:4042C000F08300BFF8B505460E461046FEF7B2FA002800F08B8131462846FEF7CBFE04464379C3F3C00743F00803437148F20C0231462846FFF76AFFFF2814BF0020012046
:40430000637960F34513637148F282023146284600F0E8F9C0B2B0FA80F04009E37960F38613E37148F28E023146284600F062F9AF4B834214BF00200120E37960F3C713E7
:40434000DBB243F02003E37148F280023146284600F0C8F930B948F281023146284600F0C1F918B1E3796FF34513E3712C2231462846FFF72BFFB0FA80F25209A37962F311
:40438000C303FF2814BF0020012060F30413A37130223146284600F0A5F9B0FA80F04009A37960F34513A37131223146284600F099F9C0B20F2814BF00200120A37960F395
:4043C0008613A37133223146284600F08BF9B0FA80F04009A37960F3C713A37102223146284600F07FF9B0FA80F04009637960F38613637148F2AD0231462846FFF7E6FE8A
:40440000B0FA80F04009E37960F30413E37140223146284600F066F9B0FA80F04009E37960F30003E3716E223146284600F0E2F8B0FA80F04009E37960F34103E3710122F4
:404440003146284600F04EF9B0FA80F04009637960F30413637150223146284600F042F9B0FA80F04009E37960F38203E3717F223146284600F0BEF8B0FA80F04009E3794B
:4044800060F3C303E371637943F08003637106223146284600F026F998B904223146284600F020F968B905223146284600F01AF938B907223146284600F014F9B0F5807FD8
:4044C00003D063796FF3C7136371A37943F00103A37110223146284600F004F988B911223146284600F0FEF858B912223146284600F0F8F828B913223146284600F0F2F874
:4045000018B1A3796FF30003A371A37943F00203A37115223146284600F0E4F888B916223146284600F0DEF858B917223146284600F0D8F828B918223146284600F0D2F800
:4045400018B1A3796FF34103A371A37943F00403A37120223146284600F0C4F8C0B2002839D132223146284600F0BCF8C0B290BB60223146284600F0B5F8C0B258BB422234
:404580003146284600F0AEF8C0B220BB72223146284600F0A7F8C0B2E8B948F283023146284600F09FF8C0B2A8B991223146284600F098F8C0B270B948F2A00231462846A6
:4045C00000F090F8C0B230B954223146284600F089F8C0B218B1A3796FF38203A371637967F3C303DBB243F004036371F8BD00BFE480FF1F2DE9F04383B007460E4690464A
:404600004FEA1229144654E031463846FEF732FD0546437913F0080F31D1027912F03F0F2DD013F0040F05D124F4FE4231463846FFF748FE24F4FE437F2B06D048F28E025C
:4046400093420ED06E2B12D105E0EB7913F0080F0FD1002312E0EB7913F0020F0BD100230CE0EB7913F0800F07D1002306E0002304E0012302E0012300E00123DBB9314639
:404680003846FFF745FD08EB002084B201AA2146284603F0F3FB012801D101981DE019F0800F08D026B93846FEF7B0FB074600E00026002FA8D124F4FE44A4B2BE2C06D031
:4046C00048F28E039C4204D07E2C05D101E0044803E00EF0E1FE00E0002003B0BDE8F0831C0B02002DE9F04383B007460E4690464FEA12291446E2E031463846FEF7BAFCB9
:404700000546437913F0080F40F0BD80027912F03F0F00F0B88013F0040F05D124F4FE4231463846FFF7CEFD24F4FE43332B5ED01ADC132B0BDC102B71DA022B39D002DC64
:40474000012B60D083E0043B032B3ED97FE0202B71D003DC153B032B67D978E0312B40D069DC302B37D072E0722B64D00CDC502B4FD004DC402B40D0422B68D15BE0542BA3
:4047800059D0602B63D156E048F28102934206DC48F28002934212DA912B58D14BE048F28302934247D04CDB48F2A00293424ED141E06B7913F0400F4BD1002362E0EB79FC
:4047C00013F0200F47D100235CE06B7913F0800F43D1002356E0AB7913F0200F3FD1002350E0AB7913F0400F3BD100234AE0AB7913F0800F37D1002344E0EB7913F0010F29
:4048000033D100233EE06B7913F0100F2FD1002338E0EB7913F0040F2BD1002332E0AB7913F0010F27D100232CE0AB7913F0020F23D1002326E0AB7913F0040F1FD1002347
:4048400020E0EB7913F0400F1BD100231AE0002318E0012316E0012314E0012312E0012310E001230EE001230CE001230AE0012308E0012306E0012304E0012302E001238A
:4048800000E00123F3B931463846FFF741FC08EB002084B20DF106022146284603F0CAF9012802D1BDF9060028E019F0800F09D026B93846FEF7AAFA074600E00026002F9D
:4048C0007FF41AAF24F4FE44A4B2222C0ED004D8032C12D0072C0BD00DE0312C02D0C02C02D008E00F2009E0102007E0FF2005E04FF4807002E0002000E0062003B0BDE81D
:40490000F08300BF70B505460C4612220021FFF7E9FE0646132200212846FFF7E3FEA41B211A09B22846FFF7ADFB70BD70B505460DF0AAF928B92A4600230B480DF0AAF905
:40494000FEE7122200212846FFF7CCFE0446132200212846FFF7C6FE06462846FEF74CFB001B801B00B270BDB0DD01002DE9F0410646002561E029463046FEF77BFB04465B
:4049800000285CD04379C3F3C00743F00803437148F20C0229463046FFF718FCFF2814BF00200120637960F34513637148F2820229463046FFF796FEC0B2B0FA80F04009A9
:4049C000E37960F38613E37148F28E0229463046FFF710FE80460EF05FFD804514BF00200120E37960F3C713E37148F2AD0229463046FFF7EBFBB0FA80F04009E37960F3D6
:404A00000413DBB243F02003E37148F2800229463046FFF767FE30B948F2810229463046FFF760FE18B1E3796FF34513E371637967F3C30363710135EDB2402D9BD100217B
:404A40003046FEF73DFA044607E02046FFF78EFF21463046FEF734FA0446002CF5D1BDE8F08100BF38B505460C461046FDF7E2FE002839D0FF2C15D021462846FEF7FAFAB6
:404A800090B342796FF3820242711DE021462846FEF7F0FA48B142796FF3820242710134E4B200E000243F2CF0D940240AE021462846FEF7DFFA38B142796FF38202427130
:404AC0000134E4B2FF2CF2D100212846FEF7F8F9044607E02046FFF749FF21462846FEF7EFF90446002CF5D138BD00BF70B505460E4614460DF0C8F828B92A460023344846
:404B00000DF0C8F8FEE7224631462846FFF7AAFF712C18D8702C32D2412C0AD8402C2ED2022C2ED3072C2AD9A4F11003082B28D825E0532C04D8502C21D24C2C21D11EE088
:404B40005C2C1ED11BE07F2C08D87E2C17D2732C17D3752C13D97C2C13D110E048F281039C4208D848F280039C4208D2902C06D0FF2C06D103E048F28E039C4201D101230C
:404B800000E00023FBB12846FEF7CAFBEB690022042128469847152C09D3182C01D9FF2C05D1286818B1C3690022012198472846FEF7B6FBFF2C02D014F4004F06D02846A6
:404BC000FEF7D6FE70BD2846FEF7AAFB70BD00BFB0DD010038B504460D46FEF79BFAFF2229462046FFF782FF38BD00BFF8B505460E4614461F46FEF73DFA3A46214603F0F7
:404C00000FF80023224631462846FEF749FA24F4FE4231462846FFF769FFF8BDF8B504460E46002530E029463046FEF723FA074660B3002321E0B98801F4C071B1F5C07F2E
:404C400002D1591CC9B200E01946387910F03F0F05D08A4205DD3A6852F8212002E0002200E00022944200D02CB9FF2229463046FFF73CFF06E00133DBB23A7902F03F022E
:404C80009342D8DB0135EDB2402DCCD100213046FEF716F9054608E029462046FFF7BEFF29463046FEF70CF90546002DF4D1F8BDF8B5064600200CF003F8074615E007F11C
:404CC000340528460DF06AF8044608E021463046FFF7A4FF214628460DF06CF80446002CF4D138460BF0ECFF0746002FE7D1F8BD2DE9F04104460D4681790068FEF7BAF95A
:404D000002F09EFEA18801F00F03082B15DC15B9B4F908200EE0FF2D02D1B4F90C2009E0B4F90830B4F90C20D21A02FB05F203EB222212B202F092F96BE00B2B4DDC002D5B
:404D400001DC228946E0FE2D01DDA28942E0EDB2A389B4F808E0C3F3C406CEF3C402C5F1FF0C0CFB02F205FB0622803202EB022602EBC612D60D4FF0000266F3C70203F020
:404D80000707C3F3423606EBC7070EF00708CEF3423606EBC80606FB0CF605FB0766803606EB062706EBC716B70E67F30202F60D66F34F32C3F30423CEF3042E0CFB0EFEFE
:404DC00005FB03E5803505EB052305EBC315ED0D65F30C2202F0FCF91BE00D2B12DC002D01DC227A0BE0FE2D01DD227B07E0227B237AD21A02FB05F203EB2222D2B202F0CE
:404E0000A1FA06E07F2D01DCA26800E0E26802F055FBA288A1792068FFF768FEBDE8F08170B505460E460F480CF0BEFF044610E02368AB4208D1A379B34201D0FF2E03D172
:404E4000FF212046FFF754FF214606480CF0BAFF0446002CECD10023FF2231462846FEF71FF970BDBCF7FF1F38B50468A58805F00F03082B06DC2A46A1792068FFF732FCBA
:404E8000208117E00B2B06DC2A46A1792068FFF761F920810EE00D2B06DC2A46A1792068FFF794F9207205E02A46A1792068FFF7A1FBA0600023A38023462A46A1792068C6
:404EC000FEF7EEF8A58038BD2DE9F04F85B004460D46174699469DF838801146FEF7CAF8064602F0ADFD009096F805A0CAF3C00A05F00F03082B6DDC737943F0090373713B
:404F000084F83D902A4639462046FFF7EBFB019084F83D802A4639462046FFF7E3FB8346737903F0FE036AF3C3037371019B834200F0208184F83D902A4639462046FFF7CE
:404F4000D1FB064684F83D8002462946009802F085F8012D29D147F6FF739E4201D09B4523D12046FEF748F800EBD07040F34F052046FEF741F800EBD07040F34F0347F6F8
:404F8000FF72964205D15E1C6A1C9642A8BF164636B247F6FF72934507D103F1010B0135AB45A8BFAB460FFA8BFB77480CF0BAFE04460CF069FE28B92246002373480CF0A1
:404FC00069FEFEE7002C00F0D7802681A4F80CB02046D6E00B2B45DC737943F00903737184F83D902A4639462046FFF7B3F8834684F83D802A4639462046FFF7ABF8ADF89D
:405000000400737903F0FE036AF3C30373711FFA8BFB83B29B4523D084F83D902A4639462046FFF797F8834684F83D8002462946009802F0CDF854480CF074FE04460CF063
:4050400023FE28B92246002350480CF023FEFEE734B1A4F808B0BDF80430A381204690E000208EE00D2B3FDC737943F00903737184F83D902A4639462046FFF7A7F8019039
:4050800084F83D802A4639462046FFF79FF88346737903F0FE036AF3C3037371019B83426CD084F83D902A4639462046FFF78EF8064684F83D8002462946009802F042F96D
:4050C00031480CF02FFE04460CF0DEFD28B9224600232E480CF0DEFDFEE7002C50D0267284F80CB020464CE084F83D90737943F0090373712A4639462046FFF77BFA0290F7
:4051000084F83D802A4639462046FFF773FA04A941F8040D737903F0FE036AF3C3037371042202A818F0A2FD10B384F83D902A4639462046FFF75EFA0246029084F83D8067
:405140002946009802F0BAF90F480CF0EBFD04460CF09AFD28B9224600230C480CF09AFDFEE72CB1029BA360039BE360204608E0002006E0002004E0002002E0002000E07B
:40518000002005B0BDE8F08FBCF7FF1F9CDD010010B504460CF078FD28B92246002303480CF078FDFEE7E06910BD00BFB0DD010010B504460CF068FD28B922460023034894
:4051C0000CF068FDFEE7206A10BD00BFB0DD010010B504460CF058FD28B92246002303480CF058FDFEE7606A10BD00BFB0DD010010B504460CF048FD28B92246002303488D
:405200000CF048FDFEE7A06B10BD00BFB0DD010070B5054600221521FDF782FD2846FFF7E7FF064610B12846FBF7C4FE002128460BF0E0FF0023FF2211462846FDF730FFDA
:405240002C1D20460CF0AAFD04E0FFF7E1FF20460CF0A4FD0028F8D12846FDF7DDFA00200BF052FE04461DE0A36B9D4202D0E36B9D4203D129462046FCF7B2FF236C9D429C
:4052800001D100232364E36D9E4207D1FDF72AF8854203D129462046FCF7A2FF20460BF033FE0446002CDFD1EB6900221146284698472846FDF7AAFD38B92846FDF7CCFD59
:4052C000294634300CF0BAFD03E0294604300CF0B5FD686A08B10CF091FF28460CF08EFF70BD00BFF8B504460CF0CEFC28B92246002314480CF0CEFCFEE72046FEF710F867
:405300002046FDF783FD074648B92046FDF7A4FD0646A0B1036C9C4204D0002503E000252E4600E001252046FFF772FF27B1FB6900220121384698470DB1002333640020A3
:40534000F8BD00BFB0DD010038B505460CF09CFC28B92A46002308480CF09CFCFEE70446A86B20B1FBF770FE854202D102E0002400E00024204638BDB0DD010010B582B010
:40538000B0F9102090F83040121BADF80020B0F914302344ADF80430B0F9122090F83140121BADF80220B0F916302344ADF80630002268460CF068F802B010BD00B583B071
:4053C00090F8343013F0800F0AD0009101238DF80430C3696A460A2198479DF8040001E0FFF7CCFF03B05DF804FB00BF002304E050F823201AB10133DBB2062BF8D940F8A8
:4054000023100120704700BFF8B505460E4614460122FFF767F9208048F20C0231462846FEF7D4FE022809D800232373237584F82A3084F8363084F84430F8BD0746237B4B
:405440006BB32C2231462846FEF7C0FE2073022825D9292231462846FEF77CFE6080232231462846FFF73EF9C0B2A07188B12A2231462846FEF76EFEA08021223146284601
:40548000FFF730F92081222231462846FFF72AF96081202231462846FFF724F96073302231462846FFF71EF92082E0B1237DD3B13C2231462846FEF789FE207502280CD9FE
:4054C000312231462846FFF70DF9C0B26082392231462846FEF73EFEE081322231462846FFF700F96075402231462846FFF7FAF86083D8B1A37FCBB14C2231462846FEF7D4
:4055000065FEA07702280BD9412231462846FFF7E9F8A083492231462846FEF71BFE2083422231462846FFF7DDF8E0776E2231462846FFF75FF8E062002845D094F8363002
:40554000002B41D06C2231462846FEF73FFE84F83600022838D96D2231462846FEF736FE84F83700612231462846FFF7BBF8003018BF012094F8383060F3000384F83830A6
:40558000E06A04F099FD02280DD1692231462846FEF7E0FDA08648F28E0231462846FFF729F8206309E094F83730022B05D9692231462846FEF7CEFDA086602231462846BA
:4055C000FFF790F884F83900502231462846FFF789F8608458B394F82A30022B27D95C2231462846FEF7F2FD84F82A0002281ED9512231462846FFF775F8A08452223146D0
:405600002846FFF76FF8E084532231462846FFF769F82085592231462846FEF79BFD2084542231462846FFF75DF884F82B007F2231462846FEF7DEFFE063002843D094F8A5
:405640004430022B3FD97C2231462846FEF7BEFD84F84400022836D9732231462846FFF741F8A4F84800742231462846FFF73AF8A4F84A00792231462846FEF76BFDA4F8B6
:4056800046007E2231462846FEF7B4FF2064702231462846FFF726F8A4F84C00712231462846FFF71FF8A4F84E00752231462846FFF718F884F85000722231462846FFF754
:4056C00011F884F85100FC2F24D8237BBFB203FB07F3C3F307232373237D03FB07F3C3F30723237594F82A3003FB07F3C3F3072384F82A3094F8363003FB07F3C3F30723C2
:4057000084F8363094F8443003FB07F7C7F3072784F84470F8BD00BF2DE9F0419AB004460E46022A6AD10021FEF7DCFF002859D1012200212046FEF7D5FF0746042200211F
:405740002046FEF7CFFF8046052200212046FEF7C9FF04F1100105AA082304E011F8015B02F8015B013B002BF8D11FFA88F8BDF81430C8EB0303ADF81430BDF81830984413
:40578000ADF8188080B2BDF816301B1AADF81630BDF81A301844ADF81A003A4605A930460BF052FF00B32C2200212046FEF70EFDFC281BD9202200212046FEF793FFC0B2F3
:4057C000B0B9322200212046FEF78CFFC0B288B948F20C0200212046FEF7F8FCFC280BD80220F6E00320F4E00220F2E00220F0E00220EEE00220ECE00120EAE0002A40F07B
:405800008D8005A809F030F8332200212046FEF769FF28B19DF82A3043F001038DF82A3005AA00212046FFF7EFFD042200212046FEF758FF8046052200212046FEF752FFAB
:4058400004F11007394601AA082304E011F8015B02F8015B013B002BF8D11FFA88F8BDF80430C8EB0303ADF80430BDF808309844ADF8088080B2BDF806301B1AADF80630C1
:40588000BDF80A301844ADF80A0005AA314601A809F00EF8022200212046FEF723FFD8B31C200CF011FE0546012200212046FEF719FF9DF82A3013F0010F22D09DF82830A9
:4058C000012B1ED9BDF92430002B1ADDB4F910300133ADF80C30B4F912300133ADF80E30B4F91430013BADF81030B4F91630013BADF812300023024603A9284606F068FE48
:4059000005E0002302463946284606F061FE04F52071284606F030FD00205AE0012A55D102220021FEF7DEFE28B104F5207006F077FD0CF0ADFC332200212046FEF7D2FEE7
:40594000002845D005A808F08FFF00258DF820508DF84A508DF83E508DF8585005AA29462046FFF751FD042229462046FEF7BAFE0746052229462046FEF7B4FE103403AAED
:40598000082304E014F8011B02F8011B013B002BF8D1BFB2BDF80C30DB1BADF80C30BDF810301F44ADF8107080B2BDF80E301B1AADF80E30BDF812301844ADF8120005AABE
:4059C000314603A808F074FF002002E0002000E000201AB0BDE8F08170B505460E46144648F28C02FEF7F2FB2073022852D948F20C0231462846FEF7E9FBFC2805D8237BC3
:405A000003FB00F0C0F307202073237B022B41D948F2890231462846FEF79CFB208048F2800231462846FEF75DFE208248F2810231462846FEF756FEE08148F2820231463C
:405A40002846FEF74FFE84F8220048F2830231462846FEF747FE84F8230048F28E0231462846FEF7C7FDA06062694FF6FF739A4210D0A2699A420DD048F28A023146284646
:405A8000FEF768FB608048F28B0231462846FEF761FBA08070BD00BF70B505460E46144648F2AC02FEF792FB2070022841D948F20C0231462846FEF789FBFC2805D8237807
:405AC00003FB00F0C0F3072020702378022B30D9002363804FF480732381B5F91430B5F910209B1A01331BB203EBD3735B10A380B5F91630B5F912209B1A01331BB203EBDD
:405B0000D3735B10E38048F2AD0231462846FEF75DFBA07230B148F2A90231462846FEF719FBA08148F2A00231462846FEF7DAFDA07370BD70B505460E4614469022FEF7BD
:405B4000D1FD6080002843D09C2231462846FEF73DFB207202283BD948F20C0231462846FEF734FBFC2805D8237A03FB00F0C0F307202072237A022B2AD9992231462846E6
:405B8000FEF7E8FA2080922231462846FEF7AAFDA08028B1932231462846FEF7A3FDE080942231462846FEF79DFD003018BF0120637A60F3820360F3C30363729122314692
:405BC0002846FEF78FFDC0B2637A60F30103637270BD00BF2DE9F84F05460E4614460121FDF7A8FABC2120460CF02AFD204608F03BFE04F1540A504604F072FE04F1820977
:405C0000484604F007F904F17808404605F01CFD31462846FDF72EFA0746437903F0010B43F001034371224631462846FFF7ECFB524631462846FFF7CFFE4A463146284606
:405C4000FFF72AFF424631462846FFF773FF102231462846FEF746FDA4F89200112231462846FEF73FFDA4F89400132231462846FEF738FDA4F89600122231462846FEF7B6
:405C800031FDA4F89800142231462846FEF72AFDA4F89A00152231462846FEF723FDA4F89C00162231462846FEF71CFDA4F89E00172231462846FEF715FDA4F8A0001822AC
:405CC00031462846FEF70EFDA4F8A200032231462846FEF707FDA4F8A400042231462846FEF700FDA4F8A600052231462846FEF7F9FCA4F8A800062231462846FEF7F2FCD5
:405D0000A4F8AA00072231462846FEF7EBFCA4F8AC00C02231462846FEF7E4FCA4F8AE00C12231462846FEF7DDFCA4F8B000C22231462846FEF7D6FCA4F8B200C3223146E9
:405D40002846FEF7CFFCA4F8B400C92231462846FEF700FAA4F8B600CA2231462846FEF7F9F9A4F8B80048F20C0231462846FEF72DFA84F8BA00022231462846FEF7B2FC5D
:405D8000003018BF012094F8BB3060F3000384F8BB30332231462846FEF7A4FC003018BF012094F8BB3060F3410384F8BB3000212846FDF7BFF97B796BF300037B71BDE8FA
:405DC000F88F00BF90F83D308B4200F0EE802DE9F04FE5B0884604460BF056FF28B92246002372480BF056FFFEE794F83DA00025A94622E029462046FDF73CF9F8B184F8EE
:405E00003DA006AA29462046FFF7E4FE84F83D8035AA29462046FFF7DDFE35A906A8FCF781FD022806D0012801D14FF001090135EDB202E04FF0020901E03F2DDAD984F8AC
:405E40003D80B9F1000F00F0AD800025CDF814A09FE029462046FDF70DF98246002800F09B80437913F0020F40F09180B02229462046FEF737FC0290B12229462046FEF799
:405E800031FC0390BE2229462046FEF7B3FB0490B22229462046FEF725FCADF81800B32229462046FEF71EFCADF81A00B42229462046FEF717FCADF81C00B5222946204622
:405EC000FEF710FCADF81E00B62229462046FEF709FCADF82000B72229462046FEF702FCADF82200002640E006AB33F81670002F39D0504601F060FECDF80080059B2A46F0
:405F000039462046FEF7E0FF834600282BD004608780857135A80BF049F9CDF8D4B0244B3693244B3793244B389300233B933C93FF233D93029B3E93039B5B423F93049983
:405F400039AA082304E011F8010B02F8010B013B002BF8D19DF80E316FF300038DF80E3135A80BF071F90136F6B2052EBCD9B9F1020F04D1FF2229462046FEF7B7FDB9F125
:405F8000010F04D1FF2229462046FEF76BFD0135EDB23F2D7FF65DAFB9F1010F02D12046FDF7BEF965B0BDE8F08F7047B0DD0100F14C0000694E00007931000038B50546F5
:405FC0000C460BF061FE28B92A46002306480BF061FEFEE795F83D3043EA04018B4202D02846FFF7EFFE38BDB0DD010038B505460C460BF049FE28B92A46002306480BF0CC
:4060000049FEFEE795F83D3023EA04018B4202D02846FFF7D7FE38BDB0DD01002DE9F04788B004460E465022FEF75CFB80B305465C2231462046FEF7C9F802282AD905EB40
:40604000D57545F34F050135ADB2532231462046FEF748FB284485B2512231462046FEF741FB8046522231462046FEF73BFB0028B8BF4042B8F1000FB8BFC8F1000840452F
:40608000ACBF281805EB080000B220EAE07702E0002700E000277F2231462046FEF7AAFA0546002800F08E807C2231462046FEF78DF8022840F28680702231462046FEF7D7
:4060C00011FB8146702231462046FEF70BFB82467E2231462046FEF78DFA4FF00008CDF8088047F618430193CDF800A04B460246294604A80DF000F8ADF81880ADF81A8018
:40610000BDF91030013BADF81C30BDF91230013BADF81E30752231462046FEF7E3FA5FFA80F9732231462046FEF7DCFA8046742231462046FEF7D6FA054605AB4A4606A988
:4061400004F110000BF0DCFABDF9143043449BB2BDF8180018440FFA80FEADF818E0BDF916202A4492B2BDF81A1011440DB2ADF81A50BDF81C100B441BB2ADF81C30BDF8EB
:406180001E100A4412B2ADF81E20B4F91000CEEB0000B842B8BF384607B2B4F91210491B8F42B8BF0F463FB2B4F914105B1ABB42B8BF3B461BB2B4F91670D71BBB42B8BF3C
:4061C0003B461FB2402231462046FEF78BFA054680B14C2231462046FDF7F8FF022809D9412231462046FEF77DFA2844B842B8BF384607B2042231462046FEF773FA054666
:40620000052231462046FEF76DFAA842B8BF284600B2002801DD384407B2384608B0BDE8F08700BF10B5044620B90BE02046FCF7EDFD04462046FDF73DFC28B1002CF5D173
:40624000204610BD002010BD204610BD08290AD1137823B900F12803536001207047002353600120704710B50446072904D136491046FFF7BBF810BD012905D1FDF732FF7F
:4062800000285AD1012010BD06290AD10021FFF7C5FEB4F932309842B8BF18466086012010BD032908D190F8493013F0010F46D0FDF732FB012010BD042903D1FCF792FD66
:4062C000012010BD0B2904D11021FFF777FE012010BDA1F10D03DBB2012B04D81021FFF785FE012010BD162919D1FEF781FFFAF743FF38B12046FFF795FF0621FFF75EFE2B
:40630000012010BD2046FFF78DFF04460221FFF755FE04212046FFF769FE012010BD172906D1FFF77FFF0621FFF760FE012010BD39B9FCF7EFFE012010BD002010BD012039
:4063400010BD012010BD00BFC0DD010038B504460D46FEF7F9FF10B385B194F8353043F0020384F8353006212046FFF73FFE2046FFF758FF0221FFF725FD38BD2046FFF78C
:4063800051FF0621FFF732FE02212046FFF71AFD94F835306FF3410384F8353038BD94F8353065F3410384F8353038BD2DE9F04383B000255EE02B4493F85A31002B58D122
:4063C00000244EE0131993F85A31002B48D1AC4246D005F10B0002EBC00004F10B0102EBC101023102300BF00DF9C8B3DFF89C80D8F8002005F10B07FF00D11904F10B06A8
:40640000F60032440232023168460BF019F868460AF0DCFF8146D8F80000384402300AF0D5FF0746D8F80000304402300AF0CEFF3844814514D2D8F8006005F10B0206EB63
:40644000C20202326946082304E011F8010B02F8010B013B002BF8D12644012386F85A3101340A4B1A68B2F87A31C3F309039C42A8D30135054B1B68B3F87A21C2F30902F9
:40648000954298D303B0BDE8F08300BF70B4FF1F2DE9F84306468846002210310BF0D4F8A8B398F8343013F0100F33D1D8F820300222314640469847814603282DD001288C
:4064C00009D148F20C0200214046FDF77FFEFF2801D04FF0020908F1040738460BF05EFC044600250AE021463046FFF7D1FF054630B9214638460BF05DFC0446002CF2D1A7
:4065000075B9B9F1010F0ED02846BDE8F8830020BDE8F8830020BDE8F8830020BDE8F8832846BDE8F8834046BDE8F88390F8343013F0100F6CD170B58AB00E460446B0F922
:40654000325004A9FCF706FDABB2BDF81020D21AADF81020BDF81220D21AADF81220BDF814201A44ADF81420BDF816201344ADF8163004AA314606A80AF036FF002845D0BD
:40658000236A1BB1002206A92046984704A92046FCF7E0FC04AA314608A80AF025FF78B3261D30460BF000FC054627E002A92846FCF7D0FC6B8EBDF80820D21AADF8082003
:4065C000BDF80A20D21AADF80A20BDF80C201A44ADF80C20BDF80E201344ADF80E3002AA08A968460AF000FF18B169462846FFF79DFF294630460BF0E5FB0546002DD5D17A
:40660000236A1BB1012206A9204698470AB070BD704700BFF8B50E46044620B9174B1868FAF77EFB04463CB331462046FFF77EFF2046FCF7EBFB07461CE03D1D21462846DD
:406640000BF0C0FB044608E031462046FFF76EFF214628460BF0B6FB0446002CF4D13B6A1BB101223146384698473846FCF7CEFB3C460746002FE0D1F8BD00BF70B4FF1F2F
:40668000704700BF30B585B00C46054610B90AF0B1FA0546002D68D034B9B5F87A316FF30903A5F87A3160E00023ADF80830ADF80A3028460AF0A4FA0138ADF80C00284617
:4066C0000AF0B2FA0138ADF80E0002AA214668460AF08AFE002848D02B6913B169462846984700240BE004F10B0105EBC1010022023168460AF0A8FFB8BB0134A4B2B5F820
:406700007A31C3F309039C42EDDB1F2B0EDC0B3305EBC30302336946082204E011F8010B03F8010B013A002AF8D111E0B5F87A316FF30903A5F87A3105F15A0102AA0823BB
:4067400004E012F8010B01F8010B013B002BF8D1B5F87A31C3F30902013262F30903A5F87A310321286B0CF03FF905B030BD00BF014B1868704700BF70B4FF1F38B51E4DCD
:4067800028680AF0ABFA044628680AF0C5FA28B907E0194B1868C36903B19847A369002BF7D10123A361144B1B685B681A6A12F0010F06D01B6A13F0020F02D00123E361A1
:4067C00001E00023E361FFF7D3FF0546436A03B19847EB6823B1A26804F110012846984723683BB162682AB1A1688B4201D1A26038BDA36038BD00BF70B4FF1F70B59CB055
:406800000646494D28680AF069FA044628680AF083FA40B904E0444B1868C36903B19847A369002BF7D104F1100231461AA80AF0DBFD3D4D2868FAF773FA01461AA8FFF705
:4068400027FE04462B68596C21B11AA8FFF720FE054600E00025002C3ED1002D3CD1324B1B685B6D33B305A803F0D4FA2E4B1B6893F858208DF8142002A9586D09F0A2F80D
:40688000012829D1029BC3F38A23BDF80A20C2F34A12013A0092013B0022114603A80AF067FD214B1A6805AB526D1AA903A803F0E9FB11E005A807F0D7FF1B4B1B68B3F899
:4068C0005220ADF8162093F858308DF8203005AA1AA9084607F0ECFF134B1B685B6C2BB105B91D461AA92846FFF794FE14B90E4B1B681C6C1AA92046FFF78CFE0A4C2068AB
:40690000FAF730FA1AA9FFF785FE2068FAF736FA1AA9FFF77FFE20680AF00AFA08B9FFF72DFF1CB070BD00BF70B4FF1F2DE9F04383B006465D4B18680AF0FAF9E8B15B4CA1
:4069400020680AF0CBF905460027078220680AF057F90138A8826F8220680AF065F90138E88223685A6892F8203043F0020382F820303046FFF742FF95E0DFF83091D9F879
:4069800000000AF0ABF90546B6F90430B6F90080C8EB030808F101080FFA88F8B6F90670B6F902403C1B013424B2D9F800000AF03BF9B84206DCD9F800000AF035F901380E
:4069C00007B201E0B6F90670EB68B3FBF8F3A046A34200DC9846354B1B681B691BB30023ADF80030ADF80430ADF802300FFA88F909F1FF3424B2ADF806402C4B186803698F
:406A000069469847BDF90620BDF90230D31A01331BB2984502DAA146002CE9DCB9F1000F41DD02F10108B6F902304FF000091FE0B6F900202A82B6F90420AA826B8243449C
:406A40009CB2631E1BB2EB829F4200DAEF82B5F916904F4508D1154B1B685A6892F8203043F0020382F820303046FFF7C7FE23B203EB0802013ABA42DADDB94513D0B6F923
:406A800000202A82B6F90420AA826B82EF82074B1B685A6892F8203043F0020382F820303046FFF7ABFE03B0BDE8F08370B4FF1F38B52C4B00225A601A68B2F87A31C3F34B
:406AC0000903002B4CD05D1E04E0531993F85A311BB1013D002DF8DA0025516891F820306FF3000381F82030526892F820306FF3410382F8203000242AE01A1992F85A210A
:406B00002ABBAC4206D1596891F8202042F0010281F82020596891F820206FF3410281F8202004F10B0003EBC0000230FFF7FEFE0C4B1B689A6952B104F10B0003EBC000EB
:406B400002300AF043FC074A5368184450600134044B1B68B3F87A21C2F309029442CCDB38BD00BF70B4FF1F2DE9F04F83B005460AF006FA0090EB68554C236000212846AF
:406B80000BF032FF23681A6C32B9B3F87A216FF30902A3F87A2197E0FFF708FCFFF788FF4B4B1868B0F87A31C3F30903002B00F087800AF0BDF8002863D0454B18684369C3
:406BC000002B5ED10AF08AF80446FFF7D7FDA369002BFCD13E4B1B68B3F9000040000BF073FC0190D4F808B0D4F800A0D34501D1D4F804A0364B18680AF002F88146002787
:406C000031E0DA1992F85A215ABB08F10B0203EBC203B3F90440B3F9026004FB09656D00B3F906309E1B013636B276000FE032460AEB050101980BF083FB324601990BEBF9
:406C400005000BF07DFB05EB4905013424B2204B1B6808F10B0203EBC203B3F908309C42E5DD0137BFB2B846194B1B68B3F87A21C2F309029742C4DB019B13B118460BF063
:406C800007FB134C20684FF480715A300BF0D8FC2068202100F5AD700BF0D2FC2368B3F87A216FF30902A3F87A2100980AF074F92468A36923B1064A526801462046984745
:406CC0000BF014FB09F054FF03B0BDE8F08F00BF70B4FF1F08B504210BF0B2FC08BD00BF08B508210BF0ACFC08BD00BF70B5037913F03F064FD0002306E0046854F823401E
:406D00008C4208D00133DBB2027902F03F029342F3DB002300E00123002B3CD00D460446012E0BD100680BF069FA00222260237903F0C00362F38613237170BD501E80003C
:406D40000BF0FEF906460AF09FFF28B93246002311480AF09FFFFEE7EEB100210B460AE0226852F82320954203D046F821200131C9B20133DBB2227902F03F029342EFDBD5
:406D800020680BF03BFA237903F03F023F3262F305032371266070BD9CDD0100002847D070B504460E46FFF7A1FF237913F03F0F04D104200BF0C4F9054608E0217901F0C8
:406DC0003F010131890020680BF04CFB054628460AF05AFF28B92A46002316480AF05AFFFEE725B3237913F0800F01D1002200E0012213F0400F01D00132D2B2237903F052
:406E00003F0308E003F18041013955F8211045F82310013BDBB29342F4D845F82260237903F03F02013262F305032371256070BD704700BF9CDD010038B5027912F0400FD3
:406E400018D0D309818801F4C071B1F5C07F01D10133DBB212F03F0F08D0027902F03F02934205DA026852F8230038BD002038BD002038BD054604200BF062F904460AF01E
:406E800003FF28B92246002309480AF003FFFEE764B12046FFF71EFF21462846FFF77EFF2B7943F040032B71204638BD002038BD9CDD010010B5044600680BF09FF900238F
:406EC000236010BD036803B382B000220FE003F00F03082B05D90B2B05D90D2B05D8032304E0042302E0042300E006231A440368995C8DF8061013445B788DF80730CBB2A0
:406F0000FF2BE4D1901C80B201E00020704702B0704700BF81B10A6872B170B50C4605460846FFF7CFFF06460BF00AF92860324621680BF005FA70BD704700BF002800F091
:406F400085802DE9F04182B004460368002B45D0CDB20E0A00224FF0FF37BE4631E09D421FD1D4F800C01CF802808DF806801CF800008DF80700BDF80600000A86EA000C7E
:406F80001CF07F0F01D117462AE000F07F0006F07F0C30EA0C0C04D1704502DD0FFA80FE17B203F00F03082B05D90B2B05D90D2B05D8032304E0042302E0042300E00623A1
:406FC0001A442368985C8DF80600501C1B5C8DF807309DF80630FF2BC1D101E04FF0FF37002F35DB3D462268D35D8DF8063017447B788DF80730BDF806200B0A83EA1223DA
:4070000013F07F0F26D10E462046FFF75BFF06F00F01082905D90B2905D90D2905D803260AE0042608E0042606E0062604E022685119CB5C53550135F3B2C11A8D42F6D32E
:4070400020680BF00FFA2060012004E000207047002000E0002002B0BDE8F081F0B585B0ADF80610ADF804200368002B43D0CEB20D0A00224FF0FF3427462EE09E421CD1C6
:40708000D0F800E01EF802C08DF80CC01EF801108DF80D10BDF80C10090A85EA010E1EF07F0F2AD001F07F0105F07F0E31EA0E0E03D1B94201DD0FB214B203F00F03082BA8
:4070C00005D90B2B05D90D2B05D8032304E0042302E0042300E006231A440368995C8DF80C10511C5B5C8DF80D309DF80C30FF2BC4D1224601E04FF0FF32002A1FDB036829
:40710000995C8DF80C1013445B788DF80D30BDF80C10BDF806301B0A83EA112313F07F0F0DD103680232134401A9022204E011F8010B03F8010B013A002AF8D143E005467C
:40714000FF23ADF80E30FFF7BDFE034608B902339BB204339CB2214628680BF083F928600AF092FD28B92A68002318480AF092FDFEE745B32A68A31F13440DF10601022299
:4071800004E011F8010B03F8010B013A002AF8D12A68231F134401A9022204E011F8010B03F8010B013A002AF8D12B68023C23440DF10E01022204E011F8010B03F8010B11
:4071C000013A002AF8D105B0F0BD00BF9CDD0100F0B585B0ADF80420ADF806100368002B43D0CEB20D0A00224FF0FF3427462EE09E421CD1D0F800E01EF802C08DF80CC07B
:407200001EF801108DF80D10BDF80C10090A85EA010E1EF07F0F2AD001F07F0105F07F0E31EA0E0E03D1B94201DD0FB214B203F00F03082B05D90B2B05D90D2B05D80323CA
